:020000040800F2
:10000000900D002045010008F1090008850700084F
:10001000ED090008E90400088F1B0008000000003B
:10002000000000000000000000000000E90D0008D2
:100030009D05000800000000790A00083911000839
:100040005F0100085F0100085F0100085F01000810
:100050005F0100085F0100085F0100085F01000800
:100060005F0100085F0100085F0100085F010008F0
:100070005F0100085F0100085F0100085F010008E0
:100080005F0100085F0100085F0100085F010008D0
:100090005F0100085F0100085F0100085F010008C0
:1000A0005F0100089D1100085F0100085F01000862
:1000B0005F010008AD1100082D1200085F01000863
:1000C0005F0100085F0100085F0100085F01000890
:1000D0005F010008AD1700085F010008A5180008BF
:1000E0005F0100085F0100085F0100085F01000870
:1000F0005F0100085F0100085F0100085F01000860
:100100005F0100085F0100086D1200085F01000830
:100110005F01000889170008A11200085F010008AC
:100120005F0100085F0100085F0100085F0100082F
:10013000DFF80CD000F000F900480047FD1E000871
:10014000900D00200648804706480047FEE7FEE77E
:10015000FEE7FEE7FEE7FEE7FEE7FEE7FEE7FEE777
:100160003D11000831010008D2B201E000F8012B76
:10017000491EFBD270470022F6E710B513460A4627
:1001800004461946FFF7F0FF204610BDF0B480EAA0
:100190000102D40F4200B2EB410F02D202460846E0
:1001A00011464A0042D0C30DDDB2C1F3C752AD1AA9
:1001B000202D35DAC1F3160141F4000204B1524298
:1001C000C5F1200602FA06F12A411044B3EBD05FD4
:1001D00023D0C4B1012DA0EBC35009DCF0BC4FF01B
:1001E000004202EAC352DBB200F5000000F075B82D
:1001F000400000F1807000EBC350A0F1807040EA35
:10020000D170490009E0490841EAC071A0EBC35030
:1002100000F50000400800EBC350F0BC00F054B8FB
:100220006142012202EB4101001BF6E7F0BC70477E
:1002300081F00041AAE780F00040A7E780EA0102D0
:1002400010B502F00043400022D04A001FD0010E3A
:1002500001EB1261C0F35600C2F3560240F40000F5
:1002600042F40002A0FB022000047F39140400D0F5
:10027000401C50EA124001D44000491EC2B20C0694
:1002800004EBD010401C4008802A02D003E000207C
:1002900010BD20F00100002900DA0020184310BD35
:1002A000002801DBC0F10040002901DBC1F1004161
:1002B00081427047002801DBC0F10040002901DBCA
:1002C000C1F10041884270470029A8BF7047401C17
:1002D000490008BF20F00100704710B4B0FA80FC5C
:1002E00000FA0CF050EA010404BF10BC704749B199
:1002F000CCF1200421FA04F411FA0CF118BF012109
:1003000021430843A3EB0C01CB1D4FEA00614FEAE8
:10031000102042BF002010BC704700EBC3501044B7
:100320000029A4BF10BC7047401C490008BF20F042
:10033000010010BC70470000064C074D06E0E06865
:1003400040F0010394E8070098471034AC42F6D31C
:10035000FFF7F2FEF01F00081020000821B18268AC
:1003600042F00102826003E0826822F001028260B2
:100370007047000010B504461248844208D101219C
:10038000401500F0B7FB0021601500F0B3FB17E04B
:100390000D48844208D10121001500F0ABFB00217B
:1003A000201500F0A7FB0BE00848844208D101218A
:1003B000C80300F09FFB00214FF4004000F09AFBBF
:1003C00010BD00000024014000280140003C014015
:1003D000014600208A6802F004020AB1012000E010
:1003E00000207047014600208A6802F008020AB126
:1003F000012000E00020704730B5024600200023B5
:1004000050680F4C20400D790C6844EA05242043C5
:10041000506090680B4C2040D1E902542C434D7938
:1004200044EA450420439060D06A20F470000C7CBC
:10043000641EE4B2234340EA0350D06230BD0000A2
:10044000FFFEF0FFFDF7F1FF816841F008018160D8
:100450007047816841F004018160704700B587B042
:1004600001214FF4047000F035FB4FF4004000F020
:1004700005FB0120ADF8040000208DF8070001A95C
:10048000174800F09FF81748FFF774FF002002900C
:100490008DF80C008DF80D004FF4602004900020C2
:1004A000059001208DF8180002A90E48FFF7A4FF5F
:1004B00001210C48FFF752FF0A48FFF7C5FF00BFB4
:1004C0000848FFF78FFF0028FAD10648FFF7C1FF61
:1004D00000BF0448FFF77CFF0028FAD107B000BD39
:1004E000001001400024014000BFFEE72DE9F84361
:1004F00080460D4616461F46DDF820906946404668
:1005000000F072FB10B90120BDE8F8839DF80010DF
:10051000204802780078401C1E4B18701E488154F9
:1005200018460078072801D20120EDE71A48007824
:1005300055281FD118484078AA281BD11648807822
:1005400018B115488078FF2814D113488079FA280B
:1005500010D11148807828700F48C07830700E484C
:10056000007938700C48407989F80000002009496A
:100570000870C9E7002405E00749601C085C0855BD
:10058000601CC4B2062CF7D3062002490870012073
:10059000BAE700007C00002075000020704701B51C
:1005A00000200AE0002001E0411CC8B20A28FBDB61
:1005B0009DF80010491EC9B200919DF80010002955
:1005C000F0D108BD2DE9F0410246002500260020AB
:1005D00000230024002791F803C00CF00F0591F8C8
:1005E00003C00CF0100CBCF1000F03D091F802C056
:1005F0004CEA050591F800C0BCF1000F31D0146839
:1006000000202BE04FF0010C0CFA00F3B1F800C011
:100610000CEA03069E4220D183004FF00F0C0CFA27
:1006200003F7BC4305FA03FC4CEA040491F803C049
:10063000BCF1280F06D14FF0010C0CFA00FCC2F8F7
:1006400014C00AE091F803C0BCF1480F05D14FF087
:10065000010C0CFA00FCC2F810C0401C0828D1D3D1
:100660001460B1F800C0BCF1FF0F34DD5468002005
:100670002EE000F1080C4FF0010808FA0CF3B1F875
:1006800000C00CEA03069E4221D183004FF00F0CFC
:100690000CFA03F7BC4305FA03FC4CEA040491F896
:1006A00003C0BCF1280F05D100F1080C08FA0CF8C2
:1006B000C2F8148091F803C0BCF1480F07D100F1D3
:1006C000080C4FF0010808FA0CF8C2F81080401C22
:1006D0000828CED35460BDE8F0810000F0B50A468A
:1006E000002300240021002500F00046B6F1004F51
:1006F00002D11D4EF16901E01B4E7168C0F3034544
:1007000083B200F44016B6F5401F08D121F07061A5
:10071000154E766826F07066134F7E6012E000F486
:100720008016B6F5801F06D1032606FA05F4A1430C
:1007300041F0706106E0460D360103FA06F6B1435A
:1007400041F0706122B1460D360103FA06F63143DD
:1007500000F00046B6F1004F02D1034EF16101E016
:10076000014E7160F0BD0000000001404161704722
:10077000016170474FF6FF710180022181700421F1
:10078000C170704700BFFEE70848806940F0100064
:10079000064988610648006820F47F4004490860E3
:1007A0000846006840F44C50086070470010024052
:1007B0000010014070B504461448006820F47040F1
:1007C000124908600846006840F440500860002064
:1007D0000F490860002516E0E0090D49091D086071
:1007E0006006040E0120FFF7DAFE01200949C1F876
:1007F0008801FFF7D4FE0020054908600120FFF7BB
:10080000CEFE681CC5B2082DE6DB70BD00100140AD
:10081000880122420000224210B51648006820F4E8
:100820007040144908600846006840F44050086071
:100830000120114908601148D0F80C0108B90020C6
:1008400010BD01200C49091F0860FFF7A8FE002019
:100850000A49C1F88C0108488038006808B10020B6
:10086000EEE70220FFF79BFE00200349091F086006
:100870000120E5E7001001408C01224200002242E5
:1008800010B51048006820F470400E490860084612
:10089000006840F44050086000200B4908600B4994
:1008A000C1F88C010220FFF77AFE0120064908609A
:1008B000FFF775FE01200549C1F88C010220FFF702
:1008C0006EFE10BD0010014088012242000022424D
:1008D00010B500241548006820F4704013490860E2
:1008E0000846006840F40040086001201049086094
:1008F000FFF755FE01200F49C1F88801FFF74FFEB1
:100900000AE0601CC4B2322C03DDFFF7B9FF0020FF
:1009100010BD0120FFF743FE05488038006800281D
:10092000EFD10349091F08600120F1E700100140E1
:100930008C0122420000224200B587B001214FF411
:10094000047000F0C7F84FF4004000F097F8022060
:10095000ADF8040000208DF8070001A91748FFF743
:1009600031FE1748FFF706FD002002908DF80C00BD
:100970008DF80D004FF460200490002005900120B8
:100980008DF8180002A90E48FFF736FD01210C482A
:10099000FFF7E4FC0A48FFF757FD00BF0848FFF7E0
:1009A00021FD0028FAD10648FFF753FD00BF044897
:1009B000FFF70EFD0028FAD107B000BD001001407E
:1009C0000024014008B50121082000F083F84FF40D
:1009D0008050ADF8000048208DF8030069460248B9
:1009E000FFF7F0FD08BD0000000C014000BFFEE76E
:1009F0007047000070B5002100230F22C47804B3B3
:100A0000154C246804F4E064C4F5E064210AC1F1E3
:100A10000403CA40447804FA03F184781440214363
:100A200009010E4C0678A155047804F01F05012435
:100A3000AC4005786D11AD0005F1E025C5F8004129
:100A400009E0047804F01F050124AC40044D067849
:100A5000761145F8264070BD0CED00E000E400E0A2
:100A600080E100E002490143024A11607047000042
:100A70000000FA050CED00E0704700000146002080
:100A8000034A506820F4404008435060704700001B
:100A90000010024029B1064AD2690243044BDA61D0
:100AA00004E0034AD2698243014BDA6170470000D7
:100AB0000010024029B1064A12690243044B1A6130
:100AC00004E0034A12698243014B1A617047000037
:100AD0000010024029B1064A92690243044B9A6110
:100AE00004E0034A92698243014B9A617047000017
:100AF0000010024029B1064AD2680243044BDA6072
:100B000004E0034AD2688243014BDA607047000078
:100B10000010024030B500210022002400232D4D9A
:100B20006D6805F00C0121B1042905D0082923D1F5
:100B300005E0294D056022E0274D05601FE0254DA9
:100B40006D6805F47012234D6D6805F4803402253C
:100B500005EB92421CB9214D554305600BE01D4D3C
:100B60006D6805F400351DB11C4D5543056002E06C
:100B7000194D5543056002E0174D056000BF00BFE9
:100B8000144D6D6805F0F0010909154D6B5C0568A1
:100B9000DD4045600F4D6D6805F4E061090A104DB8
:100BA0006B5C4568DD4085600A4D6D6805F46051F9
:100BB000C90A0B4D6B5C4568DD40C560054D6D682D
:100BC00005F44041890B074D6B5CC568B5FBF3F537
:100BD000056130BD0010024000127A0000093D009E
:100BE000240000203400002070B504460D4600BFEC
:100BF000EFF31080064672B6A08820B9304600F0A8
:100C0000FCFF002070BD2188A01D405C287020885A
:100C1000401C4FF4FA7190FBF1F201FB12002080AE
:100C2000A088401EA080304600F0E7FF0120E9E7E1
:100C300000210180418081807047000010B504468A
:100C40000CB9002000E0FF2002464FF4007102487A
:100C5000FFF78AFA10BD00003207002010B540F6F9
:100C6000C41400E0641E002CFCD1AE2200213C2004
:100C700001F0A6F9A62200213C2001F0A1F9AE2244
:100C800000213C2001F09CF9D52200213C2001F0FC
:100C900097F9802200213C2001F092F9A82200213E
:100CA0003C2001F08DF91F2200213C2001F088F941
:100CB000D32200213C2001F083F9002211463C2080
:100CC00001F07EF9402200213C2001F079F98D22CB
:100CD00000213C2001F074F9142200213C2001F095
:100CE0006FF9202200213C2001F06AF90222002144
:100CF0003C2001F065F9A12200213C2001F060F9BF
:100D0000C82200213C2001F05BF9DA2200213C20BE
:100D100001F056F9022200213C2001F051F9812214
:100D200000213C2001F04CF9CF2200213C2001F0B1
:100D300047F9D92200213C2001F042F9F12200219B
:100D40003C2001F03DF9DB2200213C2001F038F984
:100D5000402200213C2001F033F92E2200213C20CA
:100D600001F02EF9A42200213C2001F029F9A6224D
:100D700000213C2001F024F9AF2200213C2001F0A9
:100D80001FF90020FFF75AFF00F00AF8002003497E
:100D9000088048800120487110BD000080000020BC
:100DA00010B500241BE004F1B000C2B200213C20C9
:100DB00001F006F9002211463C2001F001F9102251
:100DC00000213C2001F0FCF80648802101FB0402D0
:100DD0000B4640213C2001F0FDF8601CC4B2082CF9
:100DE000E1DB10BD32070020704700002DE9F0471D
:100DF00007468846784200EB400080000A2190FBBD
:100E0000F1F949461D4801F0CDF80546C8EB081038
:100E10000A2190FBF1F94946194801F0C3F806464A
:100E200016480088A84205D115480088B04201D173
:100E3000BDE8F08700BFEFF31080044600BF72B634
:100E40000121880700F093FC29464FF0804000F014
:100E50002CFC31464FF0804000F029FC00214FF07F
:100E6000804000F084FC054805800548068000BFEE
:100E700084F3108800BF00BFDAE7000048000020BC
:100E80005000002008B501210420FFF723FE0120B7
:100E9000ADF8000010208DF8030003208DF802004B
:100EA00069461B48FFF78EFB01210420FFF712FE65
:100EB0000220ADF8000010208DF8030003208DF80B
:100EC000020069461248FFF77DFB01210820FFF769
:100ED00001FE1020ADF800008DF8030003208DF80E
:100EE000020069460B48FFF76DFB01210820FFF760
:100EF000F1FD2020ADF8000010208DF80300032044
:100F00008DF8020069460348FFF75CFB08BD00004E
:100F100000080140000C014010B58EB001210520F1
:100F2000FFF7D8FD01210846FFF7B4FD002139483D
:100F3000FFF7D4FB0DA8FFF71DFC0320ADF834002C
:100F400018208DF8370003208DF836000DA932489F
:100F5000FFF738FB01A8FFF7DDFD039CDDE9021078
:100F6000884200D064004FF0804000F0CFF90AA81A
:100F700000F0F4FB2948B4FBF0F0401E80B2ADF85D
:100F8000280044F61F60ADF82C000AA94FF08040FD
:100F900000F092FB06A800F07EFB6020ADF8180080
:100FA0000120ADF81A000020ADF820001C48C088D0
:100FB000ADF81E0006A94FF0804000F0B7FA1948BE
:100FC000C088ADF81E0006A94FF0804000F004FB79
:100FD0000821C80600F0F6FA0821C80600F04EFB0A
:100FE0000121880700F074F90121880700F082FAD6
:100FF0000121880700F078F90948C088084908806D
:101000000848C088074908800121880700F072F964
:101010000EB010BD000318000008014040420F0050
:10102000480000205000002010B500F001F810BD6D
:101030000CB50020019000903348006840F48030E7
:101040003149086000BF3048006800F4003000906B
:101050000198401C0190009818B90198B0F5A06F54
:10106000F1D12948006800F4003010B1012000904F
:1010700001E0002000900098012843D12348006837
:1010800040F01000214908600846006820F0030085
:1010900008600846006840F0020008601A4840688E
:1010A000194948600846406848600846406840F46E
:1010B000806048600846406820F47C10486008461C
:1010C000406840F4E81048600846006840F08070CE
:1010D000086000BF0C48006800F000700028F9D0DC
:1010E0000948406820F00300074948600846406806
:1010F00040F00200486000BF0348406800F00C0068
:101100000828F9D10CBD0000001002400020024068
:10111000042808D14FF0E021096941F004014FF0A3
:10112000E022116107E04FF0E021096921F004019C
:101130004FF0E022116170477047000010B513486E
:10114000006840F0010011490860084640681049F5
:1011500008400E494860084600680E4908400B499F
:1011600008600846006820F480200860084640684F
:1011700020F4FE0048604FF41F008860FFF754FF22
:101180004FF000600449086010BD000000100240EC
:101190000000FFF8FFFFF6FE08ED00E010B50121AA
:1011A000014800F0A4F810BD002C014010B5012149
:1011B0001A4800F0A1F978B30121184800F097F817
:1011C00017480068401C16490860084600683C2122
:1011D000B0FBF1F201FB1200B0B91248007808B977
:1011E000012000E000200F49087008460078002820
:1011F00005DD4FF400510C48FFF7BAFA04E04FF454
:1012000000510948FFF7B2FA05480068B0F5967F2B
:1012100002D300200249086010BD00000004004015
:1012200064000020680000200010014010B501217A
:10123000094800F061F9012809D108488168084887
:1012400000F070FE07488168074800F06BFE01213E
:10125000014800F04CF810BD000800408C00002050
:1012600034090020A80000205C09002010B50121ED
:10127000094800F041F9012809D108490870002106
:10128000054800F037F80021034800F012FA012168
:10129000014800F02CF810BD000C00403C0000207C
:1012A00010B50121084800F027F958B1012106487E
:1012B00000F01DF80548006820B104480068401E91
:1012C0000249086010BD00000010004060000020CE
:1012D00021B1028842F08002028004E002884FF6C9
:1012E0007F731A4002807047CA4302827047CA4324
:1012F0000282704721B1028842F00102028004E0BC
:1013000002884FF6FE731A400280704710B50446FB
:101310006848844208D10121C014FFF7EBFB00218B
:10132000E014FFF7E7FBC4E0B4F1804F08D10121DE
:101330000846FFF7BFFB00210120FFF7BBFBB8E029
:101340005D48844208D101210220FFF7B3FB002150
:101350000220FFF7AFFBACE05848844208D10121DE
:101360000420FFF7A7FB00210420FFF7A3FBA0E068
:101370005348844208D101210820FFF79BFB00213C
:101380000820FFF797FB94E04E48844208D10121E2
:101390001020FFF78FFB00211020FFF78BFB88E068
:1013A0004948844208D101212020FFF783FB002116
:1013B0002020FFF77FFB7CE04448844208D10121D4
:1013C0004014FFF797FB00216014FFF793FB70E0D8
:1013D0003F48844209D10121C804FFF78BFB00215B
:1013E0004FF40020FFF786FB63E03A48844209D1BE
:1013F00001210805FFF77EFB00214FF48010FFF765
:1014000079FB56E03448844209D101214805FFF7B1
:1014100071FB00214FF40010FFF76CFB49E02F48EF
:10142000844208D101214020FFF744FB00214020E5
:10143000FFF740FB3DE02A48844208D1012180208B
:10144000FFF738FB00218020FFF734FB31E025480F
:10145000844208D101218015FFF72CFB0021A01543
:10146000FFF728FB25E02048844209D10121080428
:10147000FFF740FB00214FF48030FFF73BFB18E003
:101480001A48844209D101214804FFF733FB0021A7
:101490004FF40030FFF72EFB0BE01548844208D1D3
:1014A00001218804FFF726FB00214FF48020FFF77D
:1014B00021FB10BD002C014000040040000800404A
:1014C000000C0040001000400014004000340140B7
:1014D000004C014000500140005401400018004001
:1014E000001C00400020004000400140004401403A
:1014F000004801408182704730B502460020002339
:101500000024158A05EA0103958905EA010413B14F
:101510000CB1012000E0002030BD1AB183890B43DB
:10152000838102E083898B438381704770B50024F7
:1015300000220023058C4FF6FE7635400584028C90
:101540008388048B4FF68F752C40B51E2C400D8878
:101550002C43751E2A400D892A434D882A43144D79
:10156000A8420BD0134DA84208D0134DA84205D075
:10157000124DA84202D0124DA84213D14FF6F77572
:101580002A404D892A434FF6FB752A408D882A430D
:101590004FF6FF652B404FF6FF552B408D892B43AF
:1015A000CD892B4383800483CD888586028470BDDA
:1015B000002C014000340140004001400044014043
:1015C000004801400A460021018B4FF6F77319408D
:1015D000114301837047000070B5002400220023EE
:1015E000058C4FF6EF7635400584028C8388048B9A
:1015F00048F6FF752C404FF6FF452C400D884FF6FE
:10160000FF7606EA05252C434FF6DF752A400D8943
:1016100006EA05152A434D8806EA05152A43154DA5
:10162000A84202D0144DA8421DD14FF67F752A4022
:101630004D894FF6FF7606EA05152A434FF6BF752A
:101640002A408D8806EA05152A434FF6FF352B40C0
:101650004FF2FF752B408D8906EA85052B43CD8916
:1016600006EA85052B4383800483CD8805870284A1
:1016700070BD0000002C0140003401400A460021EA
:10168000018B4FF2FF7319404FF6FF7303EA0223F9
:101690001943018370470021018041808180C1800E
:1016A000018141818181C1817047818670470187B5
:1016B0007047818470470000002202881D4B9842C9
:1016C0000ED01D4B98420BD0B0F1804F08D01B4B71
:1016D000984205D01A4B984202D01A4B984204D136
:1016E0004FF68F731A404B881A43174B984207D016
:1016F000164B984204D04FF6FF431A40CB881A434A
:1017000002808B8883850B8803850A4B98420BD017
:10171000094B984208D00E4B984205D00D4B984289
:1017200002D00D4B984201D10B7A038601238382AC
:1017300070470000002C01400034014000040040CC
:1017400000080040000C0040001000400014004061
:101750000040014000440140004801404FF6FF7145
:10176000818000210180C18041800172704721B1D8
:10177000028842F00202028004E002884FF6FD7304
:101780001A4002807047000010B540F2255106480B
:1017900000F038F930B1044800F0F0F9C4B2204646
:1017A00000F08AFA10BD00000050004010B500247F
:1017B00040F22551054800F025F930B1034800F00A
:1017C000DDF9C4B2204600F003F810BD0038014036
:1017D00010B5044600BF8021044800F006F9002837
:1017E000F9D02146014800F0CEF910BD0038014083
:1017F00010B586B00446012144F20400FFF76AF9EF
:101800004FF40070ADF8140018208DF81700032075
:101810008DF8160005A92148FEF7D4FE4FF480602C
:10182000ADF8140004208DF8170005A91B48FEF739
:10183000C9FE01940020ADF80800ADF80A00ADF82B
:101840000C00ADF810000C20ADF80E0001A91448F2
:1018500000F028F9002240F22771114800F0FCF84E
:10186000012240F225510E4800F0F6F840210C48C4
:1018700000F0A6F801210A4800F0ABF825208DF809
:10188000000000208DF8010001208DF802008DF885
:1018900003006846FFF7AEF806B010BD000801402F
:1018A0000038014010B540F22551104800F0AAF868
:1018B00080B10E4800F062F9C4B221460C4800F035
:1018C00068F918B900200B4908600DE001200949AA
:1018D000086009E040F22441044800F093F818B190
:1018E000024800F04BF9C4B210BD000000480040AF
:1018F000B80400209481214210B586B004462C48DB
:10190000FFF796F901211120FFF7E4F8012188047F
:10191000FFF7C0F801212748FEF7E0FE4FF4806092
:10192000ADF8140018208DF8170003208DF816006C
:1019300005A92148FEF746FE4FF40060ADF81400FB
:1019400004208DF8170005A91B48FEF73BFE272051
:101950008DF8000000208DF8010001208DF80200B4
:101960008DF803006846FFF745F801940020ADF8B4
:101970000800ADF80A00ADF80C00ADF810000C201E
:10198000ADF80E0001A90D4800F08CF8012240F2DC
:1019900024410A4800F060F8012240F2255107482E
:1019A00000F05AF80121054800F013F806B010BD08
:1019B000B80400201000140000100140004800404E
:1019C00001F40072B2F5007F00D100BFCA4302806B
:1019D000704721B1828942F40052828104E08289F9
:1019E0004DF6FF731A408281704702460020B1F520
:1019F000007F00D100BF13880B400BB1012000E035
:101A00000020704770B50246002400230025002006
:101A100040F66A16B14200D100BFC1F3421501F091
:101A20001F03012606FA03F3012D02D196893340E4
:101A300006E0022D02D1168A334001E0968A334037
:101A40000C12012606FA04F41688344013B10CB1C6
:101A5000012000E0002070BDF0B503460024002600
:101A60000025002040F66A17B94200D100BF184691
:101A7000C1F3421401F01F06012707FA06F5012CF5
:101A800001D10C3004E0022C01D1103000E0143000
:101A90001AB107682F43076002E00768AF43076089
:101AA000F0BD00002DE9F04786B005460E46002443
:101AB000A24600BFA1460027B08900B100BF2F4653
:101AC0002C8A4CF6FF700440F08804432C82AC89C9
:101AD0004EF6F3100440B0883189084371890843F9
:101AE0000443AC81AC8A4FF6FF400440B089044304
:101AF000AC8201A8FFF70EF81F48874202D1DDF83B
:101B000010A001E0DDF80CA0A88900F4004040B16D
:101B10000AEBCA0000EB0A1031684900B0FBF1F88B
:101B200007E00AEBCA0000EB0A1031688900B0FB3D
:101B3000F1F86420B8FBF0F004012009642101FBF6
:101B40001089A88900F4004040B1322000EBC900A0
:101B5000B0FBF1F000F00700044308E0322000EB96
:101B600009106421B0FBF1F000F00F0004432C8158
:101B700006B0BDE8F08700000038014001468888C3
:101B8000C0F308007047C1F308028280704700BFAD
:101B9000FEE770B504460D4600BFEFF31080064621
:101BA00072B6A088B0F5FA7F04DB304600F025F865
:101BB000002070BD6188A01D45546088401C4FF412
:101BC000FA7190FBF1F201FB12006080A088401CCA
:101BD000A080304600F011F80120EAE702E008C8D2
:101BE000121F08C1002AFAD170477047002001E097
:101BF00001C1121F002AFBD1704780F31088704783
:101C00001FB501211020FEF745FF1848FFF77EFBA6
:101C100040F2E730ADF8080040F2CF20ADF8040004
:101C20000020ADF80A00ADF8060001A90F48FFF743
:101C300043FD012211460D48FFF76FFC4FF4A060F1
:101C4000FEF710FF02208DF8010001208DF8020040
:101C500036208DF8000001208DF803006846FEF75D
:101C6000C9FE01210148FFF745FB1FBD00100040E0
:101C700010B5FFF763FA4FF4A060FEF7F3FE00F033
:101C800081F84FF4E130FFF7B3FD4FF4E130FFF797
:101C900033FEFFF7F7F800F019F9FFF73DF9FEF70B
:101CA00091FEFEF7DBFBFEF747FEFEF76DFD00F051
:101CB000EFF8FEF7D3FF10BD10B50446242C02D177
:101CC000012011490870232C0FD100200F49104A20
:101CD000127888540E4908700B49087000F01AF801
:101CE0000A4800210160416001810748007801280D
:101CF00008D1064806490978445405480078401C34
:101D00000349087010BD00008700002084090020EE
:101D10008600002030B500BF00BF1848407840382A
:101D2000C2B2501EC51700EB5575C5F3C703C517E2
:101D300000EB5575ED10A0EBC505ECB20F488078AF
:101D40003038642568430D4DED78303D05EB850551
:101D500000EB4500094D2D792844303881B2002927
:101D600000DC0021B1F5877F01DB4FF48771044867
:101D700000EBC30040F82410002030BD840900208F
:101D80005800002010B50E4800680E49B0FBF1F075
:101D9000C4B26FF00400FFF7BBF9E11704EB517117
:101DA000C910094A11701046007800EB4001C1EBE0
:101DB000C0104FF6FF7101EAC0000449088010BD51
:101DC0001000002040420F00380000203A000020A0
:101DD00030B585B0002500241FE01348808800B985
:101DE0001EE001A802AB03AA04A900900E48FEF76A
:101DF0007DFB80B99DF80C009DF8081040EA012099
:101E00009DF81010FF2901D1012100E00021074AAF
:101E100022F811000125601C84B2B4F5FA7FDCDBE6
:101E200000BF284605B030BDB804002002000020E5
:101E30002DE9F04105460E4617469846FEF7ECFCA4
:101E400010B90120BDE8F0816906080EFEF7B2FC6A
:101E5000FEF73EFD18B9FEF713FD0120F2E730460C
:101E6000FEF7A8FCFEF734FD00240BE018F8040090
:101E7000FEF7A0FCFEF72CFD18B9FEF701FD0020CF
:101E8000E0E7641CBC42F1DBFEF7FAFC0020D9E776
:101E900070B50025012413E0FEF7BEFC00B970BD4B
:101EA0006106080EFEF786FCFEF712FD00B906E09B
:101EB000FEF7E6FC681CC5B203490C5500BF641C64
:101EC000802CE9DB00BFEAE7B206002008B501215B
:101ED0000420FEF7FFFD4FF48050ADF80000102005
:101EE0008DF8030003208DF8020069460248FEF7D2
:101EF00069FBFFF785FE08BD00080140FFF7B8FE4B
:101F000001E000F001F8FCE710B5FFF761FF044ABB
:101F1000528811B2024A128810B2FEF767FF10BD54
:101F2000020000202DE9F04704460D462946E069ED
:101F3000FEF77EF9E060E168A069FEF727F9A0618D
:101F40001649A069FEF7B6F901D21448A0611449F8
:101F5000A069FEF7A5F901D21148A061D4E90301F7
:101F6000FEF766F98046A168FEF768F90646A169A2
:101F70006068FEF763F98046E1682068FEF75EF965
:101F800081464146FEF702F907463146FEF7FEF864
:101F90002062E0682061206ABDE8F08700C0DA4571
:101FA00000C0DAC502460B46D088C1185088884266
:101FB00000DA51889088884200DD918888B27047A5
:101FC00037B504460D4602AB012229462046FFF7ED
:101FD0002FFF3EBD2DE9F04106460F4614461D4633
:101FE000EAB2234639463046FFF722FFBDE8F081CA
:101FF00010200008000000208C000000DC1B0008FE
:102000009C2000088C000020040D0000EC1B000840
:1020100000000000000000000000000000000000C0
:1020200000A24A04000000000000000001020304B6
:10203000060708090000000001020304010203046E
:10204000060708090204060800000000000000005E
:10205000000000000A000000D405C409F401D40502
:10206000EE02FC08F401BC020000000000000000C9
:10207000000000000000000001000000000000005F
:102080000000000000000000000000000000000050
:0C20900000000000000000000000000044
:0400000508000131BD
:00000001FF
